:030000000207995B
:0100030032CA
:01000B0032C2
:0100130032BA
:01001B0032B2
:0100230032AA
:03005B000203108D
:10005E00C0E0C0D0C000C001C002E4F53BF53CF5E5
:10006E003DF53EF53F7A20E536A2E779047833E692
:10007E0033F608D9FA7905783BE636D4F608D9F97D
:10008E00DAE5D002D001D000D0D0D0E022C0E0C05E
:10009E00D0C000C001C002E4F53BF53CF53DF53E95
:1000AE00F53F7A20E536A2E779047833E633F60891
:1000BE00D9FA7905783BC0D0E6243320E70224D064
:1000CE0020E30224FDD0D033F608D9EADAD6D002E6
:1000DE00D001D000D0D0D0E022C0E0C0D0C000C04F
:1000EE0001C0027A207905C3783FE613C0D030E70D
:1000FE000224D030E30224FDF618D0D0D9EC7904D6
:10010E007836E613F618D9FADADBD002D001D00031
:10011E00D0D0D0E022C0E0C0D0E5332537F533E5AE
:10012E00343538F534E5353539F535E536353AF5C6
:10013E0036D0D0D0E022C0E0C0D0C3E5339537F53D
:10014E0033E5349538F534E5359539F535E536959D
:10015E003AF536D0D0D0E022C0E0C0D0C3E533951A
:10016E0037E5349538E5359539E536953A9200D030
:10017E00D0D0E022C0E0C0D0C3E5379533E5389546
:10018E0034E5399535E53A95369200D0D0D0E02257
:10019E00C0E0C0D0C200C3E53795337014E5389582
:1001AE0034700EE53995357008E53A95367002D201
:1001BE0000D0D0D0E02212019E2000030201822244
:1001CE0012019E20000302016622C0E0C0F0C0D0E2
:1001DE00C000C001C002C003E5338537F0A4F8A902
:1001EE00F0E5348537F0A429F9E435F0FAE53385E6
:1001FE0038F0A429F9E5F03AFAE433FBE535853712
:10020E00F0A42AFAE5F03BFBE5348538F0A42AFA8F
:10021E00E5F03BFBE5338539F0A42AFAE5F03BFB2C
:10022E00E5368537F0A42BFBE5358538F0A42BFB9E
:10023E00E5348539F0A42BFBE533853AF0A42BFB8E
:10024E008B368A3589348833D003D002D001D00062
:10025E00D0D0D0F0D0E022C0E0C0D0C000C001C0ED
:10026E0002C003C0047C20E4F8F9FAFBC3E5333383
:10027E00F533E53433F534E53533F535E53633F519
:10028E0036E833F8E933F9EA33FAEB33FBC3E89592
:10029E0037E99538EA9539EB953A4013E89537F8F2
:1002AE00E99538F9EA9539FAEB953AFB433301DCD7
:1002BE00BBD004D003D002D001D000D0D0D0E022E9
:1002CE00C2C8D2A4C2A474031203697400120369D3
:1002DE00740012036974FF12036975323F7531FFA2
:1002EE007530007400120369D2C82275CDFE75CC2C
:1002FE00B275CFFE75CEB275F98075C980D2ECD2CB
:10030E00C82275E900D2A6C0E0C0D0E5304531451F
:10031E0032601574FF1530B530071531B531021541
:10032E0032120369F5F58004C2C8D2A4D0D0D0E051
:10033E00C2A63243841043851075A12875970475A3
:10034E00F5802290FFDEE04408F02253A4CB43A5B3
:10035E003443A40853A5F775E2D022F5E3E5E13066
:10036E00E7FBF5E1E5E322C2A47406120369D2A409
:10037E0022C2A474051203697455120369D2A42013
:10038E00E0EF2200102030405060708191A1B1C189
:10039E00D1E1F112023222524272629383B3A3D39D
:1003AE00C3F3E32434041464744454A5B58595E56D
:1003BE00F5C5D53626160676665646B7A79787F73D
:1003CE00E7D7C74858687808182838C9D9E9F9898D
:1003DE0099A9B95A4A7A6A1A0A3A2ADBCBFBEB9BDD
:1003EE008BBBAB6C7C4C5C2C3C0C1CEDFDCDDDADAD
:1003FE00BD8D9D7E6E5E4E3E2E1E0EFFEFDFCFBF7D
:10040E00AF9F8F9181B1A1D1C1F1E1100030205089
:10041E004070608393A3B3C3D3E3F302122232423C
:10042E00526272B5A59585F5E5D5C53424140474CC
:10043E00645444A7B78797E7F7C7D72636061666DC
:10044E00764656D9C9F9E99989B9A95848786818EC
:10045E00083828CBDBEBFB8B9BABBB4A5A6A7A0A7C
:10046E001A2A3AFDEDDDCDBDAD9D8D7C6C5C4C3C0C
:10047E002C1C0CEFFFCFDFAFBF8F9F6E7E4E5E2E1C
:10048E003E0E1E0021426384A5C6E708294A6B8CE6
:10049E00ADCEEF31107352B594F7D639187B5ABDE5
:1004AE009CFFDE62432001E6C7A4856A4B2809EE55
:1004BE00CFAC8D53721130D7F695B45B7A1938DF05
:1004CE00FE9DBCC4E586A740610223CCED8EAF48ED
:1004DE00690A2BF5D4B79671503312FDDCBF9E79A5
:1004EE00583B1AA687E4C522036041AE8FECCD2A95
:1004FE000B684997B6D5F4133251709FBEDDFC1BC5
:10050E003A597888A9CAEB0C2D4E6F80A1C2E3042C
:10051E00254667B998FBDA3D1C7F5EB190F3D23564
:10052E00147756EACBA8896E4F2C0DE2C3A08166D4
:10053E00472405DBFA99B85F7E1D3CD3F291B05784
:10054E007615344C6D0E2FC8E98AAB44650627C06C
:10055E00E182A37D5C3F1EF9D8BB9A75543716F124
:10056E00D0B3922E0F6C4DAA8BE8C926076445A214
:10057E0083E0C11F3E5D7C9BBAD9F8173655749344
:10058E00B2D1F07812D8FE2210990280FBF5992292
:10059E0010980280FBE599227A2879FA78B8D8FE6D
:1005AE00D9FADAF62275BD0075BF0075BE7075BD3D
:1005BE0003759852759100759200224384015385FC
:1005CE00FE43918053927F43A40353A5FCD2C243B2
:1005DE00A12075A30F758E05E58E30E3FB22303119
:1005EE003233343536373839414243444546900527
:1005FE00ECE53CC4540F93120596E53C540F931250
:10060E000596742E120596E53BC4540F931205966B
:10061E00E53B540F93120596740D120596740A124B
:10062E00059622743012059674781205969005EC94
:10063E00E5F0C4540F93120596E5F0540F9312058E
:10064E0096742012059622E4936006120596A380F6
:10065E00F622D207D206D205D204D203D202D2019A
:10066E00C3E5C594C44003C20722C3E5C594AF4099
:10067E0003C20622C3E5C594904003C20522C3E51A
:10068E00C594714003C20422C3E5C594524003C20F
:10069E000322C3E5C594334003C20222C3E5C594C9
:1006AE00144003C201222241444330207075736806
:1006BE0020627574746F6E73000D0A4144433020CE
:1006CE007075736820627574746F6E732E2020546B
:1006DE006865207075736820627574746F6E732010
:1006EE00766F6C74616765206469766964657220E3
:1006FE00697320636F6E6E656374656420746F201A
:10070E0050312E370D0A00753300753400753500E3
:10071E0075360085C6337FFF12059185C63775384D
:10072E0000753900753A00120123120591DFEC7540
:10073E003710753800753900753A00120265753735
:10074E00F87538A7753900753A001201D87537FF5C
:10075E0075380F753900753A001202657537A47534
:10076E00386A753900753A0012014412005E12059E
:10077E00FC2275840075850075910075920075A434
:10078E000075A50075B10075B2002275817F120744
:10079E00801203511203411202F91203591205B3CA
:1007AE001205C91205A69006C7120655C2C8D2AFC9
:1007BE0012071512066020B0F720B0F430B0FD120B
:0507CE0002CE0207BE8F
:00000001FF
