:030000000208985B
:0100030032CA
:01000B0032C2
:0100130032BA
:01001B0032B2
:0100230032AA
:03005B000203C5D8
:10005E00C0E0C0D0C000C001C002E4F53BF53CF5E5
:10006E003DF53EF53F7A20E536A2E779047833E692
:10007E0033F608D9FA7905783BE636D4F608D9F97D
:10008E00DAE5D002D001D000D0D0D0E022C0E0C05E
:10009E00D0C000C001C002E4F53BF53CF53DF53E95
:1000AE00F53F7A20E536A2E779047833E633F60891
:1000BE00D9FA7905783BC0D0E6243320E70224D064
:1000CE0020E30224FDD0D033F608D9EADAD6D002E6
:1000DE00D001D000D0D0D0E022C0E0C0D0C000C04F
:1000EE0001C0027A207905C3783FE613C0D030E70D
:1000FE000224D030E30224FDF618D0D0D9EC7904D6
:10010E007836E613F618D9FADADBD002D001D00031
:10011E00D0D0D0E022C0E0C0D0E5332537F533E5AE
:10012E00343538F534E5353539F535E536353AF5C6
:10013E0036D0D0D0E022C0E0C0D0C3E5339537F53D
:10014E0033E5349538F534E5359539F535E536959D
:10015E003AF536D0D0D0E022C0E0C0D0C3E533951A
:10016E0037E5349538E5359539E536953A9200D030
:10017E00D0D0E022C0E0C0D0C3E5379533E5389546
:10018E0034E5399535E53A95369200D0D0D0E02257
:10019E00C0E0C0D0C200C3E53795337014E5389582
:1001AE0034700EE53995357008E53A95367002D201
:1001BE0000D0D0D0E02212019E2000030201822244
:1001CE0012019E20000302016622C0E0C0F0C0D0E2
:1001DE00C000C001C002C003E5338537F0A4F8A902
:1001EE00F0E5348537F0A429F9E435F0FAE53385E6
:1001FE0038F0A429F9E5F03AFAE433FBE535853712
:10020E00F0A42AFAE5F03BFBE5348538F0A42AFA8F
:10021E00E5F03BFBE5338539F0A42AFAE5F03BFB2C
:10022E00E5368537F0A42BFBE5358538F0A42BFB9E
:10023E00E5348539F0A42BFBE533853AF0A42BFB8E
:10024E008B368A3589348833D003D002D001D00062
:10025E00D0D0D0F0D0E022C0E0C0D0C000C001C0ED
:10026E0002C003C0047C20E4F8F9FAFBC3E5333383
:10027E00F533E53433F534E53533F535E53633F519
:10028E0036E833F8E933F9EA33FAEB33FBC3E89592
:10029E0037E99538EA9539EB953A4013E89537F8F2
:1002AE00E99538F9EA9539FAEB953AFB433301DCD7
:1002BE00BBD004D003D002D001D000D0D0D0E022E9
:1002CE00C000784AD8FED00022C000C001790A785A
:1002DE00B8D8FED9FADAF6D001D00022D2931202A3
:1002EE00CEC2931202CE22A2E79283A2E69285A2FA
:1002FE00E59286A2E492871202EAA2E39283A2E238
:10030E009285A2E19286A2E092871202EA22D2960A
:10031E000202F5C2960202F5C293C294C0027A2876
:10032E001202D7D0027433120321743312032174D4
:10033E00321203217428120321740C12032174014A
:10034E00120321C0027A021202D7D00222E4936075
:10035E000612031CA380F62244404480020321C0EF
:10036E00E0E8C4540F443012031CE8540F4430121A
:05037E00031CD0E02289
:10038300C2C8D2A4C2A4740312041E740012041EB1
:10039300740012041E74FF12041E75323F7531FF80
:1003A300753000740012041ED2C82275CDFE75CCC0
:1003B300B275CFFE75CEB275F98075C980D2ECD215
:1003C300C82275E900D2A6C0E0C0D0E5304531456A
:1003D30032601574FF1530B530071531B53102158C
:1003E3003212041EF5F58004C2C8D2A4D0D0D0E0E6
:1003F300C2A63243841043851075A12875970475EE
:10040300F5802290FFDEE04408F02253A4CB43A5FD
:100413003443A40853A5F775E2D022F5E3E5E130B0
:10042300E7FBF5E1E5E322C2A4740612041ED2A49D
:1004330022C2A4740512041E745512041ED2A420F1
:10044300E0EF2200102030405060708191A1B1C1D3
:10045300D1E1F112023222524272629383B3A3D3E7
:10046300C3F3E32434041464744454A5B58595E5B7
:10047300F5C5D53626160676665646B7A79787F787
:10048300E7D7C74858687808182838C9D9E9F989D7
:1004930099A9B95A4A7A6A1A0A3A2ADBCBFBEB9B27
:1004A3008BBBAB6C7C4C5C2C3C0C1CEDFDCDDDADF7
:1004B300BD8D9D7E6E5E4E3E2E1E0EFFEFDFCFBFC7
:1004C300AF9F8F9181B1A1D1C1F1E11000302050D4
:1004D3004070608393A3B3C3D3E3F3021222324287
:1004E300526272B5A59585F5E5D5C5342414047417
:1004F300645444A7B78797E7F7C7D7263606166627
:10050300764656D9C9F9E99989B9A9584878681836
:10051300083828CBDBEBFB8B9BABBB4A5A6A7A0AC6
:100523001A2A3AFDEDDDCDBDAD9D8D7C6C5C4C3C56
:100533002C1C0CEFFFCFDFAFBF8F9F6E7E4E5E2E66
:100543003E0E1E0021426384A5C6E708294A6B8C30
:10055300ADCEEF31107352B594F7D639187B5ABD2F
:100563009CFFDE62432001E6C7A4856A4B2809EE9F
:10057300CFAC8D53721130D7F695B45B7A1938DF4F
:10058300FE9DBCC4E586A740610223CCED8EAF4837
:10059300690A2BF5D4B79671503312FDDCBF9E79EF
:1005A300583B1AA687E4C522036041AE8FECCD2ADF
:1005B3000B684997B6D5F4133251709FBEDDFC1B0F
:1005C3003A597888A9CAEB0C2D4E6F80A1C2E30477
:1005D300254667B998FBDA3D1C7F5EB190F3D235AF
:1005E300147756EACBA8896E4F2C0DE2C3A081661F
:1005F300472405DBFA99B85F7E1D3CD3F291B057CF
:100603007615344C6D0E2FC8E98AAB44650627C0B6
:10061300E182A37D5C3F1EF9D8BB9A75543716F16E
:10062300D0B3922E0F6C4DAA8BE8C926076445A25E
:1006330083E0C11F3E5D7C9BBAD9F817365574938E
:10064300B2D1F07812D8FE2210990280FBF59922DC
:1006530010980280FBE599227A2879FA78B8D8FEB7
:10066300D9FADAF62275BD0075BF0075BE7075BD87
:100673000375985275910075920022438401538546
:10068300FE43918053927F43A40353A5FCD2C275CA
:10069300A12075A30F758E05E58E30E3FB22303163
:1006A3003233343536373839414243444546900670
:1006B300A1E53CC4540F9312064BE53C540F93122F
:1006C300064B742E12064BE53BC4540F9312064B94
:1006D300E53B540F9312064B740D12064B740A122A
:1006E300064B22743012064B747812064B9006A107
:1006F300E5F0C4540F9312064BE5F0540F93120622
:100703004B742012064B22E493600612064BA3801F
:10071300F622D207D206D205D204D203D202D201E4
:10072300C3E5C594C44003C20722C3E5C594AF40E3
:1007330003C20622C3E5C594904003C20522C3E564
:10074300C594714003C20422C3E5C594524003C259
:100753000322C3E5C594334003C20222C3E5C59413
:10076300144003C2012222C0E0740114120366D0B4
:10077300E07430A207340012031C7430A206340064
:1007830012031C7430A205340012031C7430A2043B
:10079300340012031C7430A203340012031C74309F
:1007A300A202340012031C7430A201340012031C91
:1007B3002241444330207075736820627574746FEE
:1007C3006E73000D0A4144433020707573682062D4
:1007D3007574746F6E732E20205468652070757362
:1007E3006820627574746F6E7320766F6C746167C2
:1007F30065206469766964657220697320636F6E2E
:100803006E656374656420746F2050312E370D0A52
:100813000075330075340075350075360085C633B1
:100823007FFF12064685C637753800753900753A5D
:1008330000120123120646DFEC7537107538007578
:100843003900753A001202657537F87538A775399E
:1008530000753A001201D87537FF75380F753900E6
:10086300753A001202657537A475386A75390075D3
:100873003A0012014412005E1206B122758400751B
:10088300850075910075920075A40075A50075B17A
:100893000075B2002275817F12087F1204061203CD
:1008A300F61203AE12040E12066812067E12032617
:1008B300C0E0740114120368D0E0C083C082C0E0BA
:1008C3009007B412035BD0E0D082D08312065B9012
:1008D30007C612070AC2C8D2AF12081412071512AC
:1008E300076A20B0F4C0027A321202D7D00220B0D5
:0A08F300E830B0FD1203830208DCB8
:00000001FF
