:0300000002096B87
:0100030032CA
:01000B0032C2
:0100130032BA
:01001B0032B2
:0100230032AA
:03005B000203EBB2
:10005E00C0E0C0D0C000C001C002E4F53BF53CF5E5
:10006E003DF53EF53F7A20E536A2E779047833E692
:10007E0033F608D9FA7905783BE636D4F608D9F97D
:10008E00DAE5D002D001D000D0D0D0E022C0E0C05E
:10009E00D0C000C001C002E4F53BF53CF53DF53E95
:1000AE00F53F7A20E536A2E779047833E633F60891
:1000BE00D9FA7905783BC0D0E6243320E70224D064
:1000CE0020E30224FDD0D033F608D9EADAD6D002E6
:1000DE00D001D000D0D0D0E022C0E0C0D0C000C04F
:1000EE0001C0027A207905C3783FE613C0D030E70D
:1000FE000224D030E30224FDF618D0D0D9EC7904D6
:10010E007836E613F618D9FADADBD002D001D00031
:10011E00D0D0D0E022C0E0C0D0E5332537F533E5AE
:10012E00343538F534E5353539F535E536353AF5C6
:10013E0036D0D0D0E022C0E0C0D0C3E5339537F53D
:10014E0033E5349538F534E5359539F535E536959D
:10015E003AF536D0D0D0E022C0E0C0D0C3E533951A
:10016E0037E5349538E5359539E536953A9200D030
:10017E00D0D0E022C0E0C0D0C3E5379533E5389546
:10018E0034E5399535E53A95369200D0D0D0E02257
:10019E00C0E0C0D0C200C3E53795337014E5389582
:1001AE0034700EE53995357008E53A95367002D201
:1001BE0000D0D0D0E02212019E2000030201822244
:1001CE0012019E20000302016622C0E0C0F0C0D0E2
:1001DE00C000C001C002C003E5338537F0A4F8A902
:1001EE00F0E5348537F0A429F9E435F0FAE53385E6
:1001FE0038F0A429F9E5F03AFAE433FBE535853712
:10020E00F0A42AFAE5F03BFBE5348538F0A42AFA8F
:10021E00E5F03BFBE5338539F0A42AFAE5F03BFB2C
:10022E00E5368537F0A42BFBE5358538F0A42BFB9E
:10023E00E5348539F0A42BFBE533853AF0A42BFB8E
:10024E008B368A3589348833D003D002D001D00062
:10025E00D0D0D0F0D0E022C0E0C0D0C000C001C0ED
:10026E0002C003C0047C20E4F8F9FAFBC3E5333383
:10027E00F533E53433F534E53533F535E53633F519
:10028E0036E833F8E933F9EA33FAEB33FBC3E89592
:10029E0037E99538EA9539EB953A4013E89537F8F2
:1002AE00E99538F9EA9539FAEB953AFB433301DCD7
:1002BE00BBD004D003D002D001D000D0D0D0E022E9
:1002CE00C000784AD8FED00022C000C001790A785A
:1002DE00B8D8FED9FADAF6D001D00022D2871202AF
:1002EE00CEC2871202CE22A2E79296A2E69294A2E4
:1002FE00E59293A2E492921202EAA2E39296A2E20D
:10030E009294A2E19293A2E092921202EA22D285F4
:10031E000202F5C2850202F5C287C286C0027A28A1
:10032E001202D7D0027433120321743312032174D4
:10033E00321203217428120321740C12032174014A
:10034E00120321C0027A021202D7D00222E4936075
:10035E000612031CA380F62244404480020321C0EF
:10036E00E0E8C4540F443012031CE8540F4430121A
:05037E00031CD0E02289
:10038300C2C8D2A4C2A47403120446E542120446AE
:10039300E541120446E5401204467400120446D2B5
:1003A300A7D2C822C2C8D2A4C2A47403120446743A
:1003B30000120446740012044674FF120446753298
:1003C3003F7531FF7530007400120446D2A7D2C8BE
:1003D3002275CDFE75CCB275CFFE75CEB275F980A0
:1003E30075C980D2ECD2C82275E900D2A6C0E0C09C
:1003F300D0E53045314532601574FF1530B530070F
:100403001531B531021532120446F5F58006C2C81E
:10041300C2A7D2A4D0D0D0E0C2A632438410438571
:100423001075A12875970475F5802290FFDEE044CE
:1004330008F02253A4CB43A53443A40853A5F7756E
:10044300E2D022F5E3E5E130E7FBF5E1E5E322C2A3
:10045300A47406120446D2A422C2A474051204464C
:100463007455120446D2A420E0EF2200102030403D
:100473005060708191A1B1C1D1E1F11202322252D7
:100483004272629383B3A3D3C3F3E32434041464A7
:10049300744454A5B58595E5F5C5D5362616067677
:1004A300665646B7A79787F7E7D7C74858687808C7
:1004B300182838C9D9E9F98999A9B95A4A7A6A1A17
:1004C3000A3A2ADBCBFBEB9B8BBBAB6C7C4C5C2CE7
:1004D3003C0C1CEDFDCDDDADBD8D9D7E6E5E4E3EB7
:1004E3002E1E0EFFEFDFCFBFAF9F8F9181B1A1D142
:1004F300C1F1E110003020504070608393A3B3C377
:10050300D3E3F30212223242526272B5A59585F506
:10051300E5D5C53424140474645444A7B78797E716
:10052300F7C7D72636061666764656D9C9F9E99926
:1005330089B9A95848786818083828CBDBEBFB8BB6
:100543009BABBB4A5A6A7A0A1A2A3AFDEDDDCDBD46
:10055300AD9D8D7C6C5C4C3C2C1C0CEFFFCFDFAF56
:10056300BF8F9F6E7E4E5E2E3E0E1E002142638421
:10057300A5C6E708294A6B8CADCEEF31107352B58F
:1005830094F7D639187B5ABD9CFFDE62432001E6FF
:10059300C7A4856A4B2809EECFAC8D53721130D7AF
:1005A300F695B45B7A1938DFFE9DBCC4E586A74097
:1005B300610223CCED8EAF48690A2BF5D4B796714F
:1005C300503312FDDCBF9E79583B1AA687E4C5223F
:1005D300036041AE8FECCD2A0B684997B6D5F4136F
:1005E3003251709FBEDDFC1B3A597888A9CAEB0CC7
:1005F3002D4E6F80A1C2E304254667B998FBDA3D0F
:100603001C7F5EB190F3D235147756EACBA8896E7E
:100613004F2C0DE2C3A08166472405DBFA99B85F2E
:100623007E1D3CD3F291B0577615344C6D0E2FC816
:10063300E98AAB44650627C0E182A37D5C3F1EF9CE
:10064300D8BB9A75543716F1D0B3922E0F6C4DAABE
:100653008BE8C926076445A283E0C11F3E5D7C9BEE
:10066300BAD9F81736557493B2D1F07812D8FE225E
:1006730010990280FBF5992210980280FBE59922DC
:100683007A2879FA78B8D8FED9FADAF62275BD0055
:1006930075BF0075BE7075BD037598527591007571
:1006A3009200224384015385FE43918053927F43FA
:1006B300A40353A5FCD2C243A12075A307758E05DD
:1006C300E58E30E3FB223031323334353637383977
:1006D3004142434445469006C9E53CC4540F931236
:1006E3000673E53C540F93120673742E120673E5DA
:1006F3003BC4540F93120673E53B540F93120673D6
:10070300740D120673740A12067322743012067380
:1007130074781206739006C9E5F0C4540F93120659
:1007230073E5F0540F93120673742012067322E4D8
:10073300936006120673A380F622D207D206D2056F
:10074300D204D203D202D201C3E5C594C44003C28A
:100753000722C3E5C594AF4003C20622C3E5C5948F
:10076300904003C20522C3E5C594714003C204222D
:10077300C3E5C594524003C20322C3E5C594334085
:1007830003C20222C3E5C594144003C201222241DD
:10079300444330207075736820627574746F6E7390
:1007A300000D0A41444330207075736820627574EC
:1007B300746F6E732E2020546865207075736820E3
:1007C300627574746F6E7320766F6C7461676520E5
:1007D3006469766964657220697320636F6E6E6500
:1007E3006374656420746F2050312E370D0A0054F2
:1007F3006865726D6F636F75706C6520646966669A
:100803006572656E63650054656D702066726F6D09
:10081300204C4D3333350075330075340075350086
:1008230075360085C6337FFF12066E85C637753869
:1008330000753900753A0012012312066EDFEC755C
:100843003710753800753900753A0012026575372F
:10085300E8753880753900753A001201D87537FF8D
:1008630075380F753900753A001202657537A4752E
:10087300386A753900753A0012014412005E120697
:10088300D922C0E0740114120366D0E07430A207C9
:10089300340012031C7430A206340012031C74309B
:1008A300A205340012031C7430A204340012031C8A
:1008B3007430A203340012031C7430A202340012F9
:1008C300031C7430A201340012031C22753300751B
:1008D300340075350075360085F4337FFF12066EDC
:1008E30085F437753800753900753A001201231203
:1008F300066EDFEC753710753800753900753A00F0
:100903001202657537E8753880753900753A00123B
:1009130001D87537FF75380F753900753A00120223
:100923006512005E1206D9227584007585007591E3
:100933000075920075A40075A50075B10075B2002D
:1009430022E53C540F443012031CE53BC4540F44CE
:100953003012031CE53B540F443012031C22754034
:10096300FF7541007542002275817F1209611209EA
:100973002B12042E12041E1203D4120436120690F4
:100983001206A6120326C0E0740114120368D0E015
:10099300C083C082C0E090079212035BD0E0D08294
:1009A300D0831206839007A4120732C2A7C2C8D20B
:1009B300AF90080A12073212081A9007F212073290
:1009C3001208CF12073D1208851206832083E22006
:0B09D30083DF3083FD1203A70209B48C
:00000001FF
