:030000000203698F
:10000300C0E0C0D0C000C001C002E4F538F539F546
:100013003AF53BF53C7A20E533A2E779047830E6FC
:1000230033F608D9FA79057838E636D4F608D9F9DB
:10003300DAE5D002D001D000D0D0D0E022C0E0C0B9
:10004300D0C000C001C002E4F538F539F53AF53BFC
:10005300F53C7A20E533A2E779047830E633F608F5
:10006300D9FA79057838C0D0E6243320E70224D0C2
:1000730020E30224FDD0D033F608D9EADAD6D00241
:10008300D001D000D0D0D0E022C0E0C0D0C000C0AA
:1000930001C0027A207905C3783CE613C0D030E76B
:1000A3000224D030E30224FDF618D0D0D9EC790431
:1000B3007833E613F618D9FADADBD002D001D00090
:1000C300D0D0D0E022C0E0C0D0E5302534F530E513
:1000D300313535F531E5323536F532E5333537F53A
:1000E30033D0D0D0E022C0E0C0D0C3E5309534F5A2
:1000F30030E5319535F531E5329536F532E5339511
:1001030037F533D0D0D0E022C0E0C0D0C3E530957E
:1001130034E5319535E5329536E53395379200D0A0
:10012300D0D0E022C0E0C0D0C3E5349530E53595AA
:1001330031E5369532E53795339200D0D0D0E022C1
:10014300C0E0C0D0C200C3E53495307014E53595E6
:1001530031700EE53695327008E53795337002D26B
:1001630000D0D0D0E0221201432000030201272255
:1001730012014320000302010B22C0E0C0F0C0D0F3
:10018300C000C001C002C003E5308534F0A4F8A963
:10019300F0E5318534F0A429F9E435F0FAE530854A
:1001A30035F0A429F9E5F03AFAE433FBE532853476
:1001B300F0A42AFAE5F03BFBE5318535F0A42AFAF1
:1001C300E5F03BFBE5308536F0A42AFAE5F03BFB8E
:1001D300E5338534F0A42BFBE5328535F0A42BFB06
:1001E300E5318536F0A42BFBE5308537F0A42BFBF6
:1001F3008B338A3289318830D003D002D001D000CA
:10020300D0D0D0F0D0E022C0E0C0D0C000C001C048
:1002130002C003C0047C20E4F8F9FAFBC3E53033E1
:10022300F530E53133F531E53233F532E53333F586
:1002330033E833F8E933F9EA33FAEB33FBC3E895F0
:1002430034E99535EA9536EB95374013E89534F85C
:10025300E99535F9EA9536FAEB9537FB433001DC3E
:10026300BBD004D003D002D001D000D0D0D0E02244
:1002730010990280FBF5992210980280FBE59922E0
:100283007A2879FA78B8D8FED9FADAF62275BD0059
:1002930075BF0075BE3075BD0375985275910075B5
:1002A3009200224384015385FE43918053927F43FE
:1002B300A40353A5FCD2C275A12075A30F758E05A7
:1002C300E58E30E3FB22303132333435363738397B
:1002D3004142434445469002C9E539C4540F931241
:1002E3000273E539540F93120273742E120273E5ED
:1002F30038C4540F93120273E538540F93120273E8
:10030300740D120273740A12027322E493600612CC
:100313000273A380F622743012027374781202738C
:100323009002C9E5F0C4540F93120273E5F0540F21
:10033300931202737420120273227812D8FE220DD4
:100343000A5038394C504339333531204144432026
:10035300646563696D6174696F6E206578616D7042
:100363006C652E0D0A0075817F1202901202A6128F
:10037300028390034212030E75300075310075320B
:100383000075330085C5307FFF12033D85C5347585
:1003930035007536007537001200C812033DDFECD7
:1003A30075341075350075360075370012020A75FD
:1003B30034E875358075360075370012017D753464
:1003C300FF75350F75360075370012020A7534A4B0
:1003D30075356A7536007537001200E9120003851A
:0D03E300C5F01203191202D9120283808B9B
:00000001FF
