:03000000020507EF
:10000300C000784AD8FED00022C000C001790A7827
:10001300B8D8FED9FADAF6D001D00022D28712007E
:1000230003C28712000322A2E79296A2E69294A249
:10003300E59293A2E4929212001FA2E39296A2E2A7
:100043009294A2E19293A2E0929212001F22D2858F
:1000530002002AC28502002AC287C286C0027A2809
:1000630012000CD00274331200567433120056740B
:10007300321200567428120056740C120056740182
:10008300120056C0027A0212000CD00222E49360DE
:1000930006120051A380F62244404480020056C059
:1000A300E0E8C4540F4430120051E8540F443012B6
:0500B3000051D0E02225
:1000B800C0E0C0D0C000C001C002E4F538F539F591
:1000C8003AF53BF53C7A20E533A2E779047830E647
:1000D80033F608D9FA79057838E636D4F608D9F926
:1000E800DAE5D002D001D000D0D0D0E022C0E0C004
:1000F800D0C000C001C002E4F538F539F53AF53B47
:10010800F53C7A20E533A2E779047830E633F6083F
:10011800D9FA79057838C0D0E6243320E70224D00C
:1001280020E30224FDD0D033F608D9EADAD6D0028B
:10013800D001D000D0D0D0E022C0E0C0D0C000C0F4
:1001480001C0027A207905C3783CE613C0D030E7B5
:100158000224D030E30224FDF618D0D0D9EC79047B
:100168007833E613F618D9FADADBD002D001D000DA
:10017800D0D0D0E022C0E0C0D0E5302534F530E55D
:10018800313535F531E5323536F532E5333537F584
:1001980033D0D0D0E022C0E0C0D0C3E5309534F5EC
:1001A80030E5319535F531E5329536F532E533955B
:1001B80037F533D0D0D0E022C0E0C0D0C3E53095C9
:1001C80034E5319535E5329536E53395379200D0EB
:1001D800D0D0E022C0E0C0D0C3E5349530E53595F5
:1001E80031E5369532E53795339200D0D0D0E0220C
:1001F800C0E0C0D0C200C3E53495307014E5359531
:1002080031700EE53695327008E53795337002D2B5
:1002180000D0D0D0E0221201F82000030201DC2235
:100228001201F82000030201C022C0E0C0F0C0D0D3
:10023800C000C001C002C003E5308534F0A4F8A9AD
:10024800F0E5318534F0A429F9E435F0FAE5308594
:1002580035F0A429F9E5F03AFAE433FBE5328534C0
:10026800F0A42AFAE5F03BFBE5318535F0A42AFA3B
:10027800E5F03BFBE5308536F0A42AFAE5F03BFBD8
:10028800E5338534F0A42BFBE5328535F0A42BFB50
:10029800E5318536F0A42BFBE5308537F0A42BFB40
:1002A8008B338A3289318830D003D002D001D00014
:1002B800D0D0D0F0D0E022C0E0C0D0C000C001C093
:1002C80002C003C0047C20E4F8F9FAFBC3E530332C
:1002D800F530E53133F531E53233F532E53333F5D1
:1002E80033E833F8E933F9EA33FAEB33FBC3E8953B
:1002F80034E99535EA9536EB95374013E89534F8A7
:10030800E99535F9EA9536FAEB9537FB433001DC88
:10031800BBD004D003D002D001D000D0D0D0E0228E
:100328007812D8FE2210990280FBF59922109802C3
:1003380080FBE599227A2879FA78B8D8FED9FADAD2
:10034800F62275BD0075BF0075BE3075BD03759882
:1003580052759100759200224384015385FE4391A2
:100368008053927F43A40353A5FCD2C275A1207584
:10037800A30F758E05E58E30E3FB2230313233341E
:100388003536373839414243444546900383E53989
:10039800C4540F9312032DE539540F9312032D748F
:1003A8002E12032DE538C4540F9312032DE538544B
:1003B8000F9312032D740D12032D740A12032D22AC
:1003C800743012032D747812032D900383E5F0C462
:1003D800540F9312032DE5F0540F9312032D74203C
:1003E80012032D22E493600612032DA380F622D275
:1003F80007D206D205D204D203D202D201C3E5C580
:1004080094C44003C20722C3E5C594AF4003C206A3
:1004180022C3E5C594904003C20522C3E5C5947183
:100428004003C20422C3E5C594524003C20322C359
:10043800E5C594334003C20222C3E5C594144003C2
:10044800C2012222C0E074011412009BD0E0743073
:10045800A20734001200517430A206340012005171
:100468007430A20534001200517430A20434001212
:1004780000517430A20334001200517430A20234C7
:10048800001200517430A20134001200512241447C
:100498004330207075736820627574746F6E7300D2
:1004A8000D0A414443302070757368206275747476
:1004B8006F6E732E202054686520707573682062F3
:1004C8007574746F6E7320766F6C746167652064E1
:1004D80069766964657220697320636F6E6E6563FF
:1004E80074656420746F2050312E370D0A00202067
:1004F80020202020202020202020202020200075BF
:10050800817F75840075850075910075920075A4CA
:100518000075A50075B10075B20012034A12036098
:1005280012005BC0E074011412009DD0E0C083C0CB
:1005380082C0E0900496120090D0E0D082D083125E
:10054800033D9004A81203EC740D12032D85C5F029
:100558001203C885C6F01203C875300075310075DE
:10056800320075330085C6307FFF12032885C634F4
:1005780075350075360075370012017D120328DFC6
:10058800EC7534107535007536007537001202BFEA
:100598007534F87535A7753600753700120232754F
:1005A80034FF75350F7536007537001202BF753484
:1005B800A475356A75360075370012019E1200B8A9
:1005C8001203931203F720B012C0027A3212000C01
:1005D800D00220B00612044C020550C0E074011489
:1005E80012009BD0E0C083C082C0E09004F61200E5
:0A05F80090D0E0D082D083020550BD
:00000001FF
